:100000000C943F000C9467000C9467000C946700FC
:100010000C9467000C9467000C9467000C946700C4
:100020000C9467000C9467000C9467000C946700B4
:100030000C9467000C9467000C9467000C946700A4
:100040000C9467000C9467000C9467000C94670094
:100050000C9467000C9467000C9467000C94670084
:100060000C94E10C0C9467000C9467000C946700EE
:100070000C9467000C9467000C946700CB0B112460
:100080001FBECFEFD0E1DEBFCDBF12E0A0E0B1E0F8
:10009000E8E2FCE102C005900D92A038B107D9F763
:1000A00013E0A0E8B2E001C01D92A237B107E1F76A
:1000B00010E0CEE7D0E004C02297FE010E940E0EB1
:1000C000CC37D107C9F70E94C1070C94120E0C94CB
:1000D0000000EF92FF920F931F937B018C0120E0B1
:1000E00030E040E05FE40E94E50388238CF0C80123
:1000F000B70120E030E040E05FE40E94E1010E94AF
:10010000A3049B01AC01205030404040504806C041
:10011000C801B7010E94A3049B01AC01B901CA0147
:100120001F910F91FF90EF900895A0E0B0E0EBE9F0
:10013000F0E00C94D50DDC012B01FA019C9192307A
:1001400008F439C1EB018881823008F433C194305E
:1001500069F4843009F02FC111969C91119789811F
:10016000981709F428C1A4E6B1E025C1843009F448
:1001700021C18230A9F4923009F01DC19A01AD016C
:1001800088E0EA010990AE01E90109929E018150DF
:10019000C1F7E201898111969C918923818308C16D
:1001A000923009F407C112962D903C901397EB0101
:1001B0008A819B811496AD90BD90CD90DC9017976D
:1001C000EC80FD800E811F819101281B390BB90144
:1001D00037FF04C066277727621B730B60327105F7
:1001E0000CF061C0121613066CF537014801062E9B
:1001F00004C096948794779467940A94D2F721E088
:1002000030E040E050E004C0220F331F441F551F70
:100210006A95D2F721503040404050402E213F2176
:1002200040235123211531054105510521F021E0DD
:1002300030E040E050E079018A01E628F7280829FB
:1002400019293CC0232BD1F1260E371E350146015A
:10025000062E04C096948794779467940A94D2F7F4
:1002600021E030E040E050E004C0220F331F441F83
:10027000551F6A95D2F721503040404050402A2106
:100280003B214C215D21211531054105510521F00E
:1002900021E030E040E050E059016A01A628B7288B
:1002A000C828D9280BC0821593052CF01C01AA245C
:1002B000BB24650103C0EE24FF24870111969C91A5
:1002C000D20111968C91981709F445C0992339F001
:1002D000A80197012A193B094C095D0906C0A6012E
:1002E00095012E193F09400B510B57FD08C0118293
:1002F0003382228224833583468357831DC081E065
:1003000081833382228288279927DC01821B930B09
:10031000A40BB50B84839583A683B7830DC0220FEE
:10032000331F441F551F248335834683578382819F
:1003300093810197938382832481358146815781FC
:10034000DA01C9010197A109B1098F5F9F4FAF4F32
:10035000BF4328F30BC0918333822282EA0CFB1C3B
:100360000C1D1D1DE482F5820683178383E08083C4
:10037000248135814681578157FF1AC0C901AA27B8
:1003800097FDA095BA2F81709070A070B0705695AF
:10039000479537952795822B932BA42BB52B8483D8
:1003A0009583A683B7838281938101969383828309
:1003B000DF0101C0D201CD01CDB7DEB7E2E10C947F
:1003C000F10DA0E2B0E0E7EEF1E00C94E10D6983FD
:1003D0007A838B839C832D833E834F835887E9E008
:1003E000EE2EF12CEC0EFD1ECE010196B7010E94FF
:1003F00094068E010F5E1F4FCE010596B8010E9434
:1004000094068A8991E089278A8BC701B801AE01D9
:10041000475E5F4F0E9495000E94BF05A096E6E0F0
:100420000C94FD0DA0E2B0E0E8E1F2E00C94E10DE7
:1004300069837A838B839C832D833E834F83588784
:10044000F9E0EF2EF12CEC0EFD1ECE010196B70166
:100450000E9494068E010F5E1F4FCE010596B801D3
:100460000E949406C701B801AE01475E5F4F0E942B
:1004700095000E94BF05A096E6E00C94FD0DA0E259
:10048000B0E0E5E4F2E00C94D50D69837A838B83C8
:100490009C832D833E834F835887CE010196BE01F6
:1004A000675F7F4F0E949406CE010596BE016F5E86
:1004B0007F4F0E9494069985923088F08989823016
:1004C000C8F0943019F4823051F404C0843029F417
:1004D000923081F484E691E0C6C0923049F420E085
:1004E0009A858A89981321E02A87CE010996BBC094
:1004F000823049F420E09A858A89981321E02A8B7A
:10050000CE014196B0C02D843E844F8458886D88BA
:100510007E888F88988CEE24FF248701AA24BB2430
:10052000650140E050E060E070E0E0E0F0E0C10133
:1005300081709070892BE9F0E60CF71C081D191DDD
:100540009A01AB012A0D3B1D4C1D5D1D80E090E022
:10055000A0E0B0E0E614F7040805190520F481E0F6
:1005600090E0A0E0B0E0BA01A901480F591F6A1F4E
:100570007B1FAA0CBB1CCC1CDD1C97FE08C081E0B5
:1005800090E0A0E0B0E0A82AB92ACA2ADB2A319676
:10059000E032F10549F0660C771C881C991C5694D2
:1005A000479437942794C3CFFA85EA892B893C89ED
:1005B0008B859C85280F391F2E5F3F4F17C0CA01BE
:1005C00081709070892B61F016950795F794E794E8
:1005D00080E090E0A0E0B0E8E82AF92A0A2B1B2B83
:1005E00076956795579547952F5F3F4F77FDE7CFF6
:1005F0000CC0440F551F661F771F17FD4160EE0C9E
:10060000FF1C001F111F21503040403090E059075F
:1006100090E0690790E4790760F32B8F3C8FDB0152
:10062000CA018F779070A070B07080349105A105D9
:10063000B10561F447FD0AC0E114F104010511059B
:1006400029F0405C5F4F6F4F7F4F40781A8EFE1746
:1006500011F081E08A8F4D8F5E8F6F8F78A383E0DA
:10066000898FCE0149960E94BF05A096E2E10C94C5
:10067000F10DA8E1B0E0EFE3F3E00C94DD0D698348
:100680007A838B839C832D833E834F835887B9E085
:10069000EB2EF12CEC0EFD1ECE010196B7010E944F
:1006A00094068E010F5E1F4FCE010596B8010E9481
:1006B00094062985223008F47EC03989323010F43E
:1006C000B8017CC08A859A8989278A87243011F0ED
:1006D000223031F4231709F06EC064E671E06EC079
:1006E000343039F41D861E861F86188A1C861B86A8
:1006F00004C0323021F484E08987B7015FC02B85C4
:100700003C858B899C89281B390B3C872B87ED8482
:10071000FE840F851889AD88BE88CF88D88CEA14EE
:10072000FB040C051D0540F4EE0CFF1C001F111FFF
:10073000215030403C872B8720E030E040E050E003
:1007400080E090E0A0E0B0E460E070E0EA14FB0438
:100750000C051D0540F0282B392B4A2B5B2BEA1882
:10076000FB080C091D09B695A79597958795EE0C82
:10077000FF1C001F111F6F5F7F4F6F31710531F735
:10078000DA01C9018F779070A070B0708034910544
:10079000A105B10561F427FD0AC0E114F1040105CA
:1007A000110529F0205C3F4F4F4F5F4F20782D8778
:1007B0003E874F87588BBE01675F7F4FCB010E94FA
:1007C000BF056896EAE00C94F90DA8E1B0E0EBEE05
:1007D000F3E00C94E10D69837A838B839C832D83F2
:1007E0003E834F83588789E0E82EF12CEC0EFD1EE6
:1007F000CE010196B7010E9494068E010F5E1F4F35
:10080000CE010596B8010E9494068985823040F099
:100810008989823028F0C701B8010E940C0701C005
:100820008FEF6896E6E00C94FD0DA8E1B0E0EBE1F7
:10083000F4E00C94E10D69837A838B839C832D8390
:100840003E834F83588789E0E82EF12CEC0EFD1E85
:10085000CE010196B7010E9494068E010F5E1F4FD4
:10086000CE010596B8010E9494068985823040F039
:100870008989823028F0C701B8010E940C0701C0A5
:1008800081E06896E6E00C94FD0DA8E0B0E0EBE4B2
:10089000F4E00C94DE0D9B01AC0183E08983DA0166
:1008A000C9018827B7FD83959927AA27BB27B82EAA
:1008B000211531054105510519F482E089833AC0BB
:1008C0008823A9F0203080E0380780E0480780E8DE
:1008D000580729F460E070E080E09FEC30C0EE241F
:1008E000FF248701E21AF30A040B150B02C07901F9
:1008F0008A018EE1C82ED12CDC82CB82ED82FE8271
:100900000F831887C801B7010E9470050197181658
:10091000190684F4082E04C0EE0CFF1C001F111FE2
:100920000A94D2F7ED82FE820F831887C81AD90A7B
:10093000DC82CB82BA82CE0101960E94BF05289646
:10094000E9E00C94FA0DACE0B0E0E9EAF4E00C94D4
:10095000E50D69837A838B839C83CE010196BE016A
:100960006B5F7F4F0E9494068D81823061F18230EF
:1009700050F1843021F48E81882351F12EC02F81D3
:10098000388537FD20C06E812F3131051CF066237C
:10099000F9F023C08EE190E0821B930B29853A8504
:1009A0004B855C8504C056954795379527958A9564
:1009B000D2F76623B1F050954095309521953F4F81
:1009C0004F4F5F4F0EC020E030E040E050E009C0E4
:1009D0002FEF3FEF4FEF5FE704C020E030E040E053
:1009E00050E8B901CA012C96E2E00C94010EA8E08F
:1009F000B0E0EDEFF4E00C94DD0D7B018C016115AE
:100A000071058105910519F482E0898360C083E056
:100A100089838EE1C82ED12CDC82CB82ED82FE82CE
:100A20000F831887C801B7010E947005FC01319738
:100A3000F7FF3BC0222733272E1B3F0B57016801CE
:100A4000022E04C0D694C794B794A7940A94D2F700
:100A500040E050E060E070E081E090E0A0E0B0E0D5
:100A600004C0880F991FAA1FBB1F2A95D2F70197B0
:100A7000A109B1098E219F21A023B1230097A105CF
:100A8000B10521F041E050E060E070E04A295B29C7
:100A90006C297D294D835E836F8378878EE190E09A
:100AA0008E1B9F0B9C838B8312C0309781F00E2E80
:100AB00004C0EE0CFF1C001F111F0A94D2F7ED8238
:100AC000FE820F831887CE1ADF0ADC82CB821A825D
:100AD000CE0101960E94BF052896EAE00C94F90D1C
:100AE000EF92FF920F931F937B018C0180E0E81639
:100AF00080E0F80681E0080780E0180788F48FEFAF
:100B0000E816F1040105110531F028F088E090E0C5
:100B1000A0E0B0E017C080E090E0A0E0B0E012C03C
:100B200080E0E81680E0F80680E0080781E018071A
:100B300028F088E190E0A0E0B0E004C080E190E01F
:100B4000A0E0B0E020E230E040E050E0281B390BAC
:100B50004A0B5B0B04C016950795F794E7948A95AA
:100B6000D2F7F701E459FE4F8081281B3109410972
:100B70005109C9011F910F91FF90EF900895DF92E5
:100B8000EF92FF920F931F93FC01E480F5800681A2
:100B90001781D1808081823048F480E090E0A0E12C
:100BA000B0E0E82AF92A0A2B1B2BA5C0843009F4EF
:100BB0009FC0823021F4EE24FF24870105C0E11498
:100BC000F1040105110519F4E0E0F0E096C062813E
:100BD00073819FEF623879070CF05BC022E83FEF2A
:100BE000261B370B2A3131052CF020E030E040E0A5
:100BF00050E02AC0B801A701022E04C0769567957F
:100C0000579547950A94D2F781E090E0A0E0B0E0D4
:100C100004C0880F991FAA1FBB1F2A95D2F70197FE
:100C2000A109B1098E219F21A023B1230097A1051D
:100C3000B10521F081E090E0A0E0B0E09A01AB01C5
:100C4000282B392B4A2B5B2BDA01C9018F77907047
:100C5000A070B07080349105A105B10539F427FF6B
:100C600009C0205C3F4F4F4F5F4F04C0215C3F4F96
:100C70004F4F5F4FE0E0F0E02030A0E03A07A0E007
:100C80004A07A0E45A0710F0E1E0F0E079018A0198
:100C900027C06038710564F5FB01E158FF4FD801AA
:100CA000C7018F779070A070B07080349105A10556
:100CB000B10539F4E7FE0DC080E490E0A0E0B0E0BB
:100CC00004C08FE390E0A0E0B0E0E80EF91E0A1F38
:100CD0001B1F17FF05C016950795F794E7943196EB
:100CE00087E016950795F794E7948A95D1F705C0A4
:100CF000EE24FF248701EFEFF0E06E2F6795662763
:100D00006795902F9F77D794DD24D7948E2F869563
:100D1000492F462B582F5D29B701CA011F910F910A
:100D2000FF90EF90DF900895FC01DB01408151813D
:100D30002281622F6F7770E0221F2227221F93816A
:100D4000892F880F822B282F30E0991F9927991F10
:100D500011969C93119721153105A9F5411551055F
:100D60006105710511F482E037C082E89FEF1396A8
:100D70009C938E9312979A01AB0167E0220F331F69
:100D8000441F551F6A95D1F783E08C930DC0220F45
:100D9000331F441F551F12968D919C9113970197F5
:100DA00013969C938E931297203080E0380780E052
:100DB000480780E4580758F314962D933D934D93BC
:100DC0005C93179708952F3F310579F4411551052C
:100DD0006105710519F484E08C93089564FF03C0E4
:100DE00081E08C9312C01C9210C02F573040139694
:100DF0003C932E93129783E08C9387E0440F551F0A
:100E0000661F771F8A95D1F7706414964D935D9392
:100E10006D937C93179708951F93DC01FB019C91C0
:100E2000923008F447C08081823008F443C0943087
:100E300051F411961C91843099F58181682F70E0EE
:100E4000611B71093FC0843021F0923031F482304F
:100E5000B9F18181882389F12DC011961C911197D8
:100E60008230F1F081811817D9F412962D913C91BE
:100E70001397828193818217930794F0281739077B
:100E8000BCF014968D919D910D90BC91A02D248164
:100E9000358146815781281739074A075B0718F4BF
:100EA000112341F00AC082179307A407B50740F445
:100EB000112319F061E070E005C06FEF7FEF02C011
:100EC00060E070E0CB011F910895CF93DF93809194
:100ED0001B038823E1F310921B038BB190E1892758
:100EE0008BB90E94BF0CC0E0D0E0FE01EE0FFF1FE7
:100EF000E25CFC4F6081718188E093E00E94FE0813
:100F000088E093E06CE20E9405082196C830D10584
:100F100061F788E093E00E941508DF91CF91089572
:100F20000F931F9308E013E0C80140E052EC61E02A
:100F300070E00E94720AC80160E071E00E943C0803
:100F4000549A0E94280CC8016AE171E00E940D08C1
:100F50006091700370917103C8010E940409C80177
:100F600068E371E00E940D0860914E0370914F0399
:100F7000C8010E940409C8010E9415081F910F9121
:100F800008950E9490070E946507FDCF0F931F935D
:100F9000CF93DF938C01EB0109C02196D801ED912D
:100FA000FC910190F081E02DC801099568816623CC
:100FB000A1F7DF91CF911F910F910895EF92FF92CA
:100FC0000F931F93CF93DF938C017B01EA010CC039
:100FD000D7016D917D01D801ED91FC910190F081D7
:100FE000E02DC80109952197209791F7DF91CF91C6
:100FF0001F910F91FF90EF900895DC01ED91FC910E
:101000000190F081E02D09950895DC01ED91FC91AE
:101010000190F081E02D09950895DC01ED91FC919E
:101020000280F381E02D099508950F931F938C01A1
:10103000DC01ED91FC910190F081E02D6DE00995CE
:10104000D801ED91FC910190F081E02DC8016AE09A
:1010500009951F910F9108950F931F938C01DC0147
:10106000ED91FC910190F081E02D0995C8010E945D
:1010700015081F910F9108950F931F938C010E94E3
:101080000D08C8010E9415081F910F9108950F9334
:101090001F938C01DC01ED91FC910190F081E02D1A
:1010A0000995C8010E9415081F910F9108952F926C
:1010B0003F924F925F926F927F928F929F92AF92E8
:1010C000BF92CF92DF92EF92FF920F931F93DF9325
:1010D000CF93CDB7DEB7A0970FB6F894DEBF0FBEA3
:1010E000CDBF1C016A017B014115510561057105E8
:1010F00049F4DC01ED91FC910190F081E02D60E379
:10110000099554C0882499245401422E55246624FC
:10111000772401E010E00C0F1D1F080D191DC701F9
:10112000B601A30192010E949F0DF801608308940B
:10113000811C911CA11CB11CC701B601A301920125
:101140000E949F0DC901DA016C017D01C114D10417
:10115000E104F104F1F681E0E82EF12CEC0EFD1E25
:10116000E80CF91C3E010894611C711CD501C401F6
:101170000197A109B1096C01C818D90814C0F6017A
:10118000EE0DFF1D60816A3010F4605D01C0695C86
:10119000D101ED91FC910190F081E02DC101099503
:1011A0000894E108F1086E147F0449F7A0960FB681
:1011B000F894DEBF0FBECDBFCF91DF911F910F918D
:1011C000FF90EF90DF90CF90BF90AF909F908F9067
:1011D0007F906F905F904F903F902F9008952AE0FE
:1011E0000E94570808950F931F938C010E94EF08E7
:1011F000C8010E9415081F910F910895AB0160E08E
:1012000070E00E94EF0808950F931F938C01AB01CB
:1012100060E070E00E94EF08C8010E9415081F916D
:101220000F910895EF92FF920F931F93CF93DF9347
:10123000EC017A018B0177FF0FC0E881F981019001
:10124000F081E02D6DE2099510950095F094E09401
:10125000E11CF11C011D111DCE01B801A7012AE0FE
:101260000E945708DF91CF911F910F91FF90EF904F
:1012700008950F931F938C010E941209C8010E94C8
:1012800015081F910F910895AB01662757FD6095D2
:10129000762F0E94120908950F931F938C01AB01C2
:1012A000662757FD6095762F0E941209C8010E949B
:1012B00015081F910F910895DC012115310541F4A6
:1012C000ED91FC910190F081E02D642F0995089536
:1012D0002A30310519F40E94120908950E94570816
:1012E00008950F931F938C010E945C09C8010E940E
:1012F00015081F910F9108959F92AF92BF92CF92C0
:10130000DF92EF92FF920F931F93CF93DF93EC0145
:101310007A018B01922ECB01BA0120E030E040E04F
:1013200050E00E941504882364F4E881F98101905B
:10133000F081E02DCE016DE2099517FB109517F9AC
:10134000109520E030E040E05FE3AA240BC0CA0122
:10135000B90120E030E040E251E40E9439039B01F2
:10136000AC01A394A91498F3C801B7010E9412021A
:101370005B016C010E9469007B018C01CE01B80108
:10138000A7010E94EF08992029F0CE0162E671E0E2
:101390000E940D08C801B7010E94F7049B01AC012F
:1013A000C601B5010E94E10120C020E030E040E22A
:1013B00051E40E943F027B018C010E94A3045B0167
:1013C0006C01CC24B7FCC094DC2CCE01B601A50185
:1013D0000E941209C601B5010E9445049B01AC019F
:1013E000C801B7010E94E1019A949920F1F6DF91BA
:1013F000CF911F910F91FF90EF90DF90CF90BF9012
:10140000AF909F90089522E00E947C0908950F9369
:101410001F938C010E94030AC8010E9415081F91A6
:101420000F9108958F92AF92CF92DF92EF92FF9239
:101430000F931F93DF93CF93CDB7DEB7FC018AE7FD
:1014400092E09183808373836283558344833783DF
:10145000268311870087F386E286D586C486A68612
:1014600087868D85808B8E85818B8F85828BCF91B2
:10147000DF911F910F91FF90EF90DF90CF90AF9091
:101480008F9008958F92AF92CF92DF92EF92FF925A
:101490000F931F93DF93CF93CDB7DEB7FC018AE79D
:1014A00092E091838083738362835583448337837F
:1014B000268311870087F386E286D586C486A686B2
:1014C00087868D85808B8E85818B8F85828BCF9152
:1014D000DF911F910F91FF90EF90DF90CF90AF9031
:1014E0008F9008958F929F92AF92BF92CF92DF928A
:1014F000EF92FF920F931F93CF93DF934C017A01EA
:101500008B0181EDE81682E1F80683E1080780E0AF
:10151000180708F073C060EA75E286E290E0A8015F
:1015200097010E949F0D59016A010894A108B10812
:10153000C108D108D694C794B794A794A601950181
:101540002F5F3F4F4F4F5F4F74E0220F331F441FF9
:10155000551F7A95D1F760E07DE281E391E00E942A
:101560009F0DCA01B9012FEF30E040E050E00E942A
:101570006D0DA80197010E949F0DCFEFD0E0C21B17
:10158000D30BD7FF03C0D095C195DF4F60E47BE458
:101590008CE490E0A80197010E949F0D21503040FB
:1015A0004040504056954795379527952F5F3F4FC0
:1015B0004F4F5F4F93E0220F331F441F551F9A95E3
:1015C000D1F760E07DE281E391E00E949F0DCA01C6
:1015D000B9012FEF30E040E050E00E946D0DA8010E
:1015E00097010E949F0D8FEF90E0821B930B97FF56
:1015F00003C0909581959F4F8C1710F5D4011896D4
:10160000ED91FC91199781E090E052960C9002C008
:10161000880F991F0A94E2F7808360E47BE48CE4EE
:1016200090E0A80197010E949F0D2150304040405A
:1016300050405695479537952795822F232F08C000
:10164000D4011896ED91FC91199710828A2D2B2DBB
:10165000D4011496ED91FC91159720831696ED9187
:10166000FC91179780831A96ED91FC911B9720812E
:1016700041E050E0CA011E960C901E9702C0880FF0
:10168000991F0A94E2F7282B20831A96ED91FC917A
:101690001B972081CA011F960C901F9702C0880FCC
:1016A000991F0A94E2F7282B20831A96ED91FC915A
:1016B0001B97808150960C9002C0440F551F0A94CE
:1016C000E2F7842B8083DF91CF911F910F91FF90E0
:1016D000EF90DF90CF90BF90AF909F908F90089544
:1016E000DC011296ED91FC911397E058FF4F819128
:1016F000919180589F4F20813181821B930B60E82C
:1017000070E00E948C0D0895CF93DF93DC01129658
:10171000ED91FC911397EF01CE57DF4F488159812E
:10172000E058FF4F80819181E058F0408417950781
:1017300019F42FEF3FEF0CC0E40FF51F2081CA0111
:10174000019660E870E00E948C0D9983888330E0F8
:10175000C901DF91CF910895DC011296ED91FC91C2
:101760001397EE57FF4F8081918192938293089552
:10177000FC01A085B18521898C9190E0022E02C0E8
:10178000959587950A94E2F780FFF6CF0484F58556
:10179000E02D608308958AE792E090930903809397
:1017A000080384E892E090930B0380930A0385EC8E
:1017B00090E090930D0380930C0384EC90E0909361
:1017C0000F0380930E0380EC90E0909311038093BD
:1017D000100381EC90E0909313038093120386EC46
:1017E00090E0909315038093140384E08093160394
:1017F00083E08093170387E08093180385E080934C
:10180000190381E080931A030895FC0120E030E081
:101810008081882311F421E030E0C9010895FC01A2
:1018200081E08083089508950895ECE7F0E09081C9
:101830008295880F880F807C9F73982B90830895E2
:10184000ECE7F0E090818F71907E892B8083089582
:1018500080917A00846080937A0080917A0082601F
:1018600080937A0080917A00816080937A008091E1
:101870007C008F7380937C0080917A0080688093D5
:101880007A0080917C00807E8E6180937C0088EE5F
:1018900093E024EF31E0F9013197F1F70197D9F79F
:1018A00060E040E050E080917A00806480937A00AC
:1018B00080917A0086FDFCCF90917800809179002C
:1018C000382F20E0892F90E0822B932B480F591F4F
:1018D0006F5F6F3041F750934F0340934E039093E7
:1018E00071038093700380917A008F7780937A00E0
:1018F00080917C008F7380937C0080917C00807E3F
:1019000080937C0080917A00806280937A0080913D
:101910007A00886080937A0080917A008068809352
:101920007A0010921D0380E090E0FC01EE0FFF1F93
:10193000DF01A25EBC4F11961C921E92E25DFC4F2D
:101940001182108201968830910579F788EE93E034
:1019500024EF31E0F9013197F1F70197D9F7789445
:1019600080917A00806480937A0081E080931C03E8
:1019700080917C00807E816080937C0008954FB7C9
:10198000F89420E030E0D901AA0FBB1FFD01E25D11
:10199000FC4F80819181FD01E25CFC4F918380834B
:1019A000FD01E05BFC4F80819181A05ABC4F1196F4
:1019B0009C938E932F5F3F4F2830310521F74FBF07
:1019C00008951F920F920FB60F9211242F933F93F9
:1019D0004F935F936F937F938F939F93AF93BF9337
:1019E000EF93FF93809178006091790070911C03D0
:1019F000482F50E07723D1F480912C0390912D0350
:101A0000362F20E0242B352B820F931F90932D032C
:101A100080932C0330935F0320935E0380911D031A
:101A20008F5F80931D038F30B1F519C0E72FF0E071
:101A30003197EE0FFF1FDF01A25EBC4F2D913C914D
:101A40001197962F80E0842B952B280F391F119624
:101A50003C932E93E05BFC4F918380831CC01092DB
:101A60001D0320E030E0F901EE0FFF1FDF01A25E51
:101A7000BC4F8D919C911197E25DFC4F91838083C7
:101A800011961C921E922F5F3F4F2830310559F757
:101A900081E080931B03872F8F5F80931C03883026
:101AA00011F410921C0390917C0080911C038F71A3
:101AB000907E892B80937C00FF91EF91BF91AF9135
:101AC0009F918F917F916F915F914F913F912F9156
:101AD0000F900FBE0F901F901895629FD001739FBB
:101AE000F001829FE00DF11D649FE00DF11D929FBA
:101AF000F00D839FF00D749FF00D659FF00D9927F9
:101B0000729FB00DE11DF91F639FB00DE11DF91F1C
:101B1000BD01CF011124089597FB092E07260AD095
:101B200077FD04D02ED006D000201AF47095619570
:101B30007F4F0895F6F7909581959F4F0895A1E204
:101B40001A2EAA1BBB1BFD010DC0AA1FBB1FEE1F37
:101B5000FF1FA217B307E407F50720F0A21BB30B82
:101B6000E40BF50B661F771F881F991F1A9469F7FE
:101B700060957095809590959B01AC01BD01CF015A
:101B80000895AA1BBB1B51E107C0AA1FBB1FA617C4
:101B9000B70710F0A61BB70B881F991F5A95A9F716
:101BA00080959095BC01CD0108952F923F924F9260
:101BB0005F926F927F928F929F92AF92BF92CF92DD
:101BC000DF92EF92FF920F931F93CF93DF93CDB7E6
:101BD000DEB7CA1BDB0B0FB6F894DEBF0FBECDBF5E
:101BE00009942A88398848885F846E847D848C842F
:101BF0009B84AA84B984C884DF80EE80FD800C8138
:101C00001B81AA81B981CE0FD11D0FB6F894DEBF1A
:101C10000FBECDBFED010895EE0FFF1F0590F491AB
:081C2000E02D0994F894FFCFB8
:101C28005075736870616B2051756164726F746F61
:101C3800722E2E2E2E2E2E2E2E00526177204144EB
:101C48004320636F756E7420666F7220312E315693
:101C580020726566203D2000313578206163637508
:101C68006D616C617465642041444320636F756ED7
:101C78007420666F7220312E315620726566203DC1
:101C880020002E00000000000000000000010202F9
:101C980003030303040404040404040405050505FC
:101CA80005050505050505050505050506060606D8
:101CB80006060606060606060606060606060606BC
:101CC80006060606060606060606060607070707A8
:101CD800070707070707070707070707070707078C
:101CE800070707070707070707070707070707077C
:101CF800070707070707070707070707070707076C
:101D08000707070707070707070707070808080857
:101D1800080808080808080808080808080808083B
:101D2800080808080808080808080808080808082B
:101D3800080808080808080808080808080808081B
:101D4800080808080808080808080808080808080B
:101D580008080808080808080808080808080808FB
:101D680008080808080808080808080808080808EB
:101D780008080808080808080808080808080808DB
:101D880008080808080808080808080800000000EB
:101D9800140CC607DE0700000000B80BC607DE07F4
:00000001FF
