:100000000C9441000C9469000C9469000C946900F4
:100010000C9469000C9469000C9469000C946900BC
:100020000C9469000C9469000C9469000C946900AC
:100030000C9469000C9469000C9469000C9469009C
:100040000C9469000C9469000C9469000C9469008C
:100050000C9469000C9469000C9469000C9469007C
:100060000C94C00C0C9469000C9469000C94690009
:100070000C9469000C9469000C9469006C0B93104B
:10008000EA1011241FBECFEFD0E1DEBFCDBF13E0D9
:10009000A0E0B1E0E8E5F3E202C005900D92A232E3
:1000A000B107D9F714E0A2E2B3E001C01D92A43475
:1000B000B107E1F710E0C2E8D0E004C02297FE01EA
:1000C0000E94A611CC37D107C9F70E94960F0C9455
:1000D000AA110C940000EF92FF920F931F937B01E3
:1000E0008C0120E030E040E05FE40E94E7038823D9
:1000F0008CF0C801B70120E030E040E05FE40E94EE
:10010000E3010E94A5049B01AC0120503040404017
:10011000504806C0C801B7010E94A5049B01AC016C
:10012000B901CA011F910F91FF90EF900895A0E0CF
:10013000B0E0EDE9F0E00C946D11DC012B01FA0167
:100140009C91923008F439C1EB018881823008F427
:1001500033C1943069F4843009F02FC111969C9119
:1001600011978981981709F428C1A6E0B2E025C14A
:10017000843009F421C18230A9F4923009F01DC104
:100180009A01AD0188E0EA010990AE01E901099206
:100190009E018150C1F7E201898111969C918923CA
:1001A000818308C1923009F407C112962D903C90CA
:1001B0001397EB018A819B811496AD90BD90CD90F1
:1001C000DC901797EC80FD800E811F819101281B28
:1001D000390BB90137FF04C066277727621B730B01
:1001E000603271050CF061C0121613066CF5370110
:1001F0004801062E04C096948794779467940A94D5
:10020000D2F721E030E040E050E004C0220F331F7D
:10021000441F551F6A95D2F721503040404050404E
:100220002E213F2140235123211531054105510540
:1002300021F021E030E040E050E079018A01E62839
:10024000F728082919293CC0232BD1F1260E371E87
:1002500035014601062E04C09694879477946794DE
:100260000A94D2F721E030E040E050E004C0220FD1
:10027000331F441F551F6A95D2F72150304040402C
:1002800050402A213B214C215D212115310541059A
:10029000510521F021E030E040E050E059016A01D1
:1002A000A628B728C828D9280BC0821593052CF09A
:1002B0001C01AA24BB24650103C0EE24FF2487018E
:1002C00011969C91D20111968C91981709F445C012
:1002D000992339F0A80197012A193B094C095D09B6
:1002E00006C0A60195012E193F09400B510B57FD81
:1002F00008C0118233822282248335834683578348
:100300001DC081E081833382228288279927DC0106
:10031000821B930BA40BB50B84839583A683B783B1
:100320000DC0220F331F441F551F2483358346837E
:1003300057838281938101979383828324813581BE
:1003400046815781DA01C9010197A109B1098F5F7F
:100350009F4FAF4FBF4328F30BC09183338222825C
:10036000EA0CFB1C0C1D1D1DE482F582068317831D
:1003700083E08083248135814681578157FF1AC0ED
:10038000C901AA2797FDA095BA2F81709070A0701F
:10039000B0705695479537952795822B932BA42BB4
:1003A000B52B84839583A683B7838281938101963D
:1003B00093838283DF0101C0D201CD01CDB7DEB7C7
:1003C000E2E10C948911A0E2B0E0E9EEF1E00C94D6
:1003D000791169837A838B839C832D833E834F833A
:1003E0005887E9E0EE2EF12CEC0EFD1ECE010196B1
:1003F000B7010E9496068E010F5E1F4FCE01059633
:10040000B8010E9496068A8991E089278A8BC701E4
:10041000B801AE01475E5F4F0E9497000E94C10580
:10042000A096E6E00C949511A0E2B0E0EAE1F2E0DB
:100430000C94791169837A838B839C832D833E830B
:100440004F835887F9E0EF2EF12CEC0EFD1ECE0104
:100450000196B7010E9496068E010F5E1F4FCE01D6
:100460000596B8010E949606C701B801AE01475E25
:100470005F4F0E9497000E94C105A096E6E00C9491
:100480009511A0E2B0E0E7E4F2E00C946D1169830D
:100490007A838B839C832D833E834F835887CE0141
:1004A0000196BE01675F7F4F0E949606CE010596BA
:1004B000BE016F5E7F4F0E9496069985923088F04C
:1004C00089898230C8F0943019F4823051F404C024
:1004D000843029F4923081F486E092E0C6C09230F4
:1004E00049F420E09A858A89981321E02A87CE0171
:1004F0000996BBC0823049F420E09A858A89981316
:1005000021E02A8BCE014196B0C02D843E844F84D9
:1005100058886D887E888F88988CEE24FF24870108
:10052000AA24BB24650140E050E060E070E0E0E018
:10053000F0E0C10181709070892BE9F0E60CF71CA6
:10054000081D191D9A01AB012A0D3B1D4C1D5D1D97
:1005500080E090E0A0E0B0E0E614F704080519059B
:1005600020F481E090E0A0E0B0E0BA01A901480FDA
:10057000591F6A1F7B1FAA0CBB1CCC1CDD1C97FEDD
:1005800008C081E090E0A0E0B0E0A82AB92ACA2A19
:10059000DB2A3196E032F10549F0660C771C881CA5
:1005A000991C5694479437942794C3CFFA85EA89C7
:1005B0002B893C898B859C85280F391F2E5F3F4FE7
:1005C00017C0CA0181709070892B61F0169507954C
:1005D000F794E79480E090E0A0E0B0E8E82AF92AF8
:1005E0000A2B1B2B76956795579547952F5F3F4FA5
:1005F00077FDE7CF0CC0440F551F661F771F17FD0F
:100600004160EE0CFF1C001F111F21503040403094
:1006100090E0590790E0690790E4790760F32B8F29
:100620003C8FDB01CA018F779070A070B07080346E
:100630009105A105B10561F447FD0AC0E114F1047B
:100640000105110529F0405C5F4F6F4F7F4F4078E7
:100650001A8EFE1711F081E08A8F4D8F5E8F6F8F9B
:1006600078A383E0898FCE0149960E94C105A096A8
:10067000E2E10C948911A8E1B0E0E1E4F3E00C942C
:10068000751169837A838B839C832D833E834F838B
:100690005887B9E0EB2EF12CEC0EFD1ECE01019631
:1006A000B7010E9496068E010F5E1F4FCE01059680
:1006B000B8010E9496062985223008F47EC0398947
:1006C000323010F4B8017CC08A859A8989278A87DC
:1006D000243011F0223031F4231709F06EC066E0A7
:1006E00072E06EC0343039F41D861E861F86188A6B
:1006F0001C861B8604C0323021F484E08987B70150
:100700005FC02B853C858B899C89281B390B3C87D6
:100710002B87ED84FE840F851889AD88BE88CF882D
:10072000D88CEA14FB040C051D0540F4EE0CFF1CEC
:10073000001F111F215030403C872B8720E030E004
:1007400040E050E080E090E0A0E0B0E460E070E0E5
:10075000EA14FB040C051D0540F0282B392B4A2B0D
:100760005B2BEA18FB080C091D09B695A795979510
:100770008795EE0CFF1C001F111F6F5F7F4F6F31BD
:10078000710531F7DA01C9018F779070A070B070F0
:1007900080349105A105B10561F427FD0AC0E1147B
:1007A000F1040105110529F0205C3F4F4F4F5F4FC9
:1007B00020782D873E874F87588BBE01675F7F4F1C
:1007C000CB010E94C1056896EAE00C949111A8E162
:1007D000B0E0EDEEF3E00C94791169837A838B83BA
:1007E0009C832D833E834F83588789E0E82EF12C2C
:1007F000EC0EFD1ECE010196B7010E9496068E01F9
:100800000F5E1F4FCE010596B8010E94960689859E
:10081000823040F08989823028F0C701B8010E94F7
:100820000E0701C08FEF6896E6E00C949511A8E1E1
:10083000B0E0EDE1F4E00C94791169837A838B8365
:100840009C832D833E834F83588789E0E82EF12CCB
:10085000EC0EFD1ECE010196B7010E9496068E0198
:100860000F5E1F4FCE010596B8010E94960689853E
:10087000823040F08989823028F0C701B8010E9497
:100880000E0701C081E06896E6E00C949511A8E09F
:10089000B0E0EDE4F4E00C9476119B01AC0183E050
:1008A0008983DA01C9018827B7FD83959927AA278B
:1008B000BB27B82E211531054105510519F482E0F9
:1008C00089833AC08823A9F0203080E0380780E08F
:1008D000480780E8580729F460E070E080E09FEC6A
:1008E00030C0EE24FF248701E21AF30A040B150B33
:1008F00002C079018A018EE1C82ED12CDC82CB8224
:10090000ED82FE820F831887C801B7010E9472052D
:1009100001971816190684F4082E04C0EE0CFF1C6B
:10092000001F111F0A94D2F7ED82FE820F831887F1
:10093000C81AD90ADC82CB82BA82CE0101960E9403
:10094000C1052896E9E00C949211ACE0B0E0EBEA26
:10095000F4E00C947D1169837A838B839C83CE01B0
:100960000196BE016B5F7F4F0E9496068D8182309B
:1009700061F1823050F1843021F48E81882351F16D
:100980002EC02F81388537FD20C06E812F31310573
:100990001CF06623F9F023C08EE190E0821B930BDC
:1009A00029853A854B855C8504C0569547953795D2
:1009B00027958A95D2F76623B1F0509540953095EA
:1009C00021953F4F4F4F5F4F0EC020E030E040E099
:1009D00050E009C02FEF3FEF4FEF5FE704C020E08A
:1009E00030E040E050E8B901CA012C96E2E00C94F6
:1009F0009911A8E0B0E0EFEFF4E00C9475117B01E1
:100A00008C01611571058105910519F482E08983D6
:100A100060C083E089838EE1C82ED12CDC82CB823A
:100A2000ED82FE820F831887C801B7010E9472050C
:100A3000FC013197F7FF3BC0222733272E1B3F0BCA
:100A400057016801022E04C0D694C794B794A794A6
:100A50000A94D2F740E050E060E070E081E090E07E
:100A6000A0E0B0E004C0880F991FAA1FBB1F2A9501
:100A7000D2F70197A109B1098E219F21A023B123AB
:100A80000097A105B10521F041E050E060E070E081
:100A90004A295B296C297D294D835E836F83788782
:100AA0008EE190E08E1B9F0B9C838B8312C030974E
:100AB00081F00E2E04C0EE0CFF1C001F111F0A94C3
:100AC000D2F7ED82FE820F831887CE1ADF0ADC820E
:100AD000CB821A82CE0101960E94C1052896EAE0D7
:100AE0000C949111EF92FF920F931F937B018C0155
:100AF00080E0E81680E0F80681E0080780E018074B
:100B000088F48FEFE816F1040105110531F028F0A3
:100B100088E090E0A0E0B0E017C080E090E0A0E0C6
:100B2000B0E012C080E0E81680E0F80680E0080738
:100B300081E0180728F088E190E0A0E0B0E004C070
:100B400080E190E0A0E0B0E020E230E040E050E062
:100B5000281B390B4A0B5B0B04C016950795F794BD
:100B6000E7948A95D2F7F701E25FFD4F8081281B59
:100B7000310941095109C9011F910F91FF90EF906F
:100B80000895DF92EF92FF920F931F93FC01E48090
:100B9000F58006811781D1808081823048F480E021
:100BA00090E0A0E1B0E0E82AF92A0A2B1B2BA5C0AF
:100BB000843009F49FC0823021F4EE24FF248701A1
:100BC00005C0E114F1040105110519F4E0E0F0E0BD
:100BD00096C0628173819FEF623879070CF05BC029
:100BE00022E83FEF261B370B2A3131052CF020E09D
:100BF00030E040E050E02AC0B801A701022E04C056
:100C000076956795579547950A94D2F781E090E0DD
:100C1000A0E0B0E004C0880F991FAA1FBB1F2A954F
:100C2000D2F70197A109B1098E219F21A023B123F9
:100C30000097A105B10521F081E090E0A0E0B0E0CF
:100C40009A01AB01282B392B4A2B5B2BDA01C90106
:100C50008F779070A070B07080349105A105B105B8
:100C600039F427FF09C0205C3F4F4F4F5F4F04C04E
:100C7000215C3F4F4F4F5F4FE0E0F0E02030A0E0BD
:100C80003A07A0E04A07A0E45A0710F0E1E0F0E0DC
:100C900079018A0127C06038710564F5FB01E158CC
:100CA000FF4FD801C7018F779070A070B07080346B
:100CB0009105A105B10539F4E7FE0DC080E490E08F
:100CC000A0E0B0E004C08FE390E0A0E0B0E0E80E68
:100CD000F91E0A1F1B1F17FF05C016950795F794ED
:100CE000E794319687E016950795F794E7948A95EF
:100CF000D1F705C0EE24FF248701EFEFF0E06E2F5F
:100D0000679566276795902F9F77D794DD24D794B2
:100D10008E2F8695492F462B582F5D29B701CA0182
:100D20001F910F91FF90EF90DF900895FC01DB0180
:100D3000408151812281622F6F7770E0221F22272C
:100D4000221F9381892F880F822B282F30E0991F33
:100D50009927991F11969C93119721153105A9F593
:100D6000411551056105710511F482E037C082E833
:100D70009FEF13969C938E9312979A01AB0167E0B5
:100D8000220F331F441F551F6A95D1F783E08C93C0
:100D90000DC0220F331F441F551F12968D919C9139
:100DA0001397019713969C938E931297203080E0AF
:100DB000380780E0480780E4580758F314962D93CD
:100DC0003D934D935C93179708952F3F310579F428
:100DD000411551056105710519F484E08C9308955E
:100DE00064FF03C081E08C9312C01C9210C02F5787
:100DF000304013963C932E93129783E08C9387E0B8
:100E0000440F551F661F771F8A95D1F7706414969B
:100E10004D935D936D937C93179708951F93DC0119
:100E2000FB019C91923008F447C08081823008F425
:100E300043C0943051F411961C91843099F581810E
:100E4000682F70E0611B71093FC0843021F092303F
:100E500031F48230B9F18181882389F12DC0119656
:100E60001C9111978230F1F081811817D9F41296F4
:100E70002D913C911397828193818217930794F06F
:100E800028173907BCF014968D919D910D90BC9157
:100E9000A02D2481358146815781281739074A07BB
:100EA0005B0718F4112341F00AC082179307A407C7
:100EB000B50740F4112319F061E070E005C06FEF51
:100EC0007FEF02C060E070E0CB011F9108950F93A7
:100ED0001F93CF93DF938C01EB0109C02196D801BA
:100EE000ED91FC910190F081E02DC8010995688198
:100EF0006623A1F7DF91CF911F910F910895EF9293
:100F0000FF920F931F93CF93DF938C017B01EA0134
:100F10000CC0D7016D917D01D801ED91FC9101903C
:100F2000F081E02DC80109952197209791F7DF9175
:100F3000CF911F910F91FF90EF900895DC01ED91FB
:100F4000FC910190F081E02D09950895DC01ED916F
:100F5000FC910190F081E02D09950895DC01ED915F
:100F6000FC910280F381E02D099508950F931F9362
:100F70008C01DC01ED91FC910190F081E02D6DE0A0
:100F80000995D801ED91FC910190F081E02DC80107
:100F90006AE009951F910F9108950F931F938C019B
:100FA000DC01ED91FC910190F081E02D0995C801E3
:100FB0000E94B6071F910F9108950F931F938C0104
:100FC0000E94AE07C8010E94B6071F910F910895B5
:100FD0000F931F938C01DC01ED91FC910190F08146
:100FE000E02D0995C8010E94B6071F910F91089541
:100FF0002F923F924F925F926F927F928F929F9229
:10100000AF92BF92CF92DF92EF92FF920F931F9316
:10101000DF93CF93CDB7DEB7A0970FB6F894DEBFBE
:101020000FBECDBF1C016A017B0141155105610551
:10103000710549F4DC01ED91FC910190F081E02D06
:1010400060E3099554C0882499245401422E552404
:101050006624772401E010E00C0F1D1F080D191DF8
:10106000C701B601A30192010E943711F801608304
:101070000894811C911CA11CB11CC701B601A301DD
:1010800092010E943711C901DA016C017D01C1147E
:10109000D104E104F104F1F681E0E82EF12CEC0E2C
:1010A000FD1EE80CF91C3E010894611C711CD50161
:1010B000C4010197A109B1096C01C818D90814C06D
:1010C000F601EE0DFF1D60816A3010F4605D01C015
:1010D000695CD101ED91FC910190F081E02DC1019D
:1010E00009950894E108F1086E147F0449F7A09669
:1010F0000FB6F894DEBF0FBECDBFCF91DF911F9129
:101100000F91FF90EF90DF90CF90BF90AF909F90A6
:101110008F907F906F905F904F903F902F900895A9
:101120002AE00E94F80708950F931F938C010E94F4
:101130009008C8010E94B6071F910F910895AB0156
:1011400060E070E00E94900808950F931F938C0157
:10115000AB0160E070E00E949008C8010E94B607F1
:101160001F910F910895EF92FF920F931F93CF93CA
:10117000DF93EC017A018B0177FF0FC0E881F981E1
:101180000190F081E02D6DE2099510950095F094A5
:10119000E094E11CF11C011D111DCE01B801A70155
:1011A0002AE00E94F807DF91CF911F910F91FF90E5
:1011B000EF9008950F931F938C010E94B308C8010C
:1011C0000E94B6071F910F910895AB01662757FD46
:1011D0006095762F0E94B30808950F931F938C019A
:1011E000AB01662757FD6095762F0E94B308C801B2
:1011F0000E94B6071F910F910895DC01211531055A
:1012000041F4ED91FC910190F081E02D642F09955E
:1012100008952A30310519F40E94B30808950E94F8
:10122000F80708950F931F938C010E94FD08C801D1
:101230000E94B6071F910F9108959F92AF92BF929F
:10124000CF92DF92EF92FF920F931F93CF93DF9392
:10125000EC017A018B01922ECB01BA0120E030E043
:1012600040E050E00E941704882364F4E881F9818B
:101270000190F081E02DCE016DE2099517FB1095EC
:1012800017F9109520E030E040E05FE3AA240BC09E
:10129000CA01B90120E030E040E251E40E943B0382
:1012A0009B01AC01A394A91498F3C801B7010E9453
:1012B00014025B016C010E946B007B018C01CE016A
:1012C000B801A7010E949008992029F0CE0160E0A2
:1012D00071E00E94AE07C801B7010E94F9049B01AA
:1012E000AC01C601B5010E94E30120C020E030E05E
:1012F00040E251E40E9441027B018C010E94A5045E
:101300005B016C01CC24B7FCC094DC2CCE01B6018F
:10131000A5010E94B308C601B5010E9447049B01C4
:10132000AC01C801B7010E94E3019A949920F1F63B
:10133000DF91CF911F910F91FF90EF90DF90CF90B1
:10134000BF90AF909F90089522E00E941D090895DC
:101350000F931F938C010E94A409C8010E94B60735
:101360001F910F9108958F92AF92CF92DF92EF92DB
:10137000FF920F931F93DF93CF93CDB7DEB7FC019E
:101380008CE193E0918380837383628355834483EC
:101390003783268311870087F386E286D586C48645
:1013A000A68687868D85808B8E85818B8F85828BA7
:1013B000CF91DF911F910F91FF90EF90DF90CF9031
:1013C000AF908F9008958F92AF92CF92DF92EF926D
:1013D000FF920F931F93DF93CF93CDB7DEB7FC013E
:1013E0008CE193E09183808373836283558344838C
:1013F0003783268311870087F386E286D586C486E5
:10140000A68687868D85808B8E85818B8F85828B46
:10141000CF91DF911F910F91FF90EF90DF90CF90D0
:10142000AF908F9008958F929F92AF92BF92CF927C
:10143000DF92EF92FF920F931F93CF93DF934C01B4
:101440007A018B0181EDE81682E1F80683E1080755
:1014500080E0180708F073C060EA75E286E290E069
:10146000A80197010E94371159016A010894A10847
:10147000B108C108D108D694C794B794A794A6011F
:1014800095012F5F3F4F4F4F5F4F74E0220F331F87
:10149000441F551F7A95D1F760E07DE281E391E02A
:1014A0000E943711CA01B9012FEF30E040E050E04F
:1014B0000E940511A80197010E943711CFEFD0E0DB
:1014C000C21BD30BD7FF03C0D095C195DF4F60E49B
:1014D0007BE48CE490E0A80197010E943711215031
:1014E00030404040504056954795379527952F5F9F
:1014F0003F4F4F4F5F4F93E0220F331F441F551F45
:101500009A95D1F760E07DE281E391E00E94371186
:10151000CA01B9012FEF30E040E050E00E94051110
:10152000A80197010E9437118FEF90E0821B930B67
:1015300097FF03C0909581959F4F8C1710F5D401AC
:101540001896ED91FC91199781E090E052960C90DD
:1015500002C0880F991F0A94E2F7808360E47BE45D
:101560008CE490E0A80197010E943711215030408F
:10157000404050405695479537952795822F232F09
:1015800008C0D4011896ED91FC91199710828A2D0C
:101590002B2DD4011496ED91FC911597208316966E
:1015A000ED91FC91179780831A96ED91FC911B9712
:1015B000208141E050E0CA011E960C901E9702C0A7
:1015C000880F991F0A94E2F7282B20831A96ED9131
:1015D000FC911B972081CA011F960C901F9702C097
:1015E000880F991F0A94E2F7282B20831A96ED9111
:1015F000FC911B97808150960C9002C0440F551FA0
:101600000A94E2F7842B8083DF91CF911F910F9191
:10161000FF90EF90DF90CF90BF90AF909F908F9012
:101620000895DC011296ED91FC911397E058FF4F5D
:101630008191919180589F4F20813181821B930B22
:1016400060E870E00E9424110895CF93DF93DC01DD
:101650001296ED91FC911397EF01CE57DF4F488121
:101660005981E058FF4F80819181E058F040841704
:10167000950719F42FEF3FEF0CC0E40FF51F208101
:10168000CA01019660E870E00E9424119983888362
:1016900030E0C901DF91CF910895DC011296ED9100
:1016A000FC911397EE57FF4F808191819293829323
:1016B0000895FC01A085B18521898C9190E0022ECE
:1016C00002C0959587950A94E2F780FFF6CF0484CF
:1016D000F585E02D608308958CE193E09093A70356
:1016E0008093A60382E293E09093A9038093A803DA
:1016F00085EC90E09093AB038093AA0384EC90E098
:101700009093AD038093AC0380EC90E09093AF0393
:101710008093AE0381EC90E09093B1038093B0038B
:1017200086EC90E09093B3038093B20384E08093BF
:10173000B40383E08093B50387E08093B60385E02C
:101740008093B70381E08093B8030895FC0120E003
:1017500030E08081882311F421E030E0C901089550
:10176000FC0181E08083089508950895ECE7F0E09E
:1017700090818295880F880F807C9F73982B90832F
:101780000895ECE7F0E090818F71907E892B808343
:1017900008958FB7F894209140043091410440910E
:1017A0004204509143048FBFB901CA0108951092B9
:1017B000400410924104109242041092430480911C
:1017C0007A00846080937A0080917A0082608093AE
:1017D0007A0080917A00816080937A0080917C0009
:1017E0008F7380937C0080917A00806880937A0068
:1017F00080917C00807E8E6180937C0088EE93E0F7
:1018000024EF31E0F9013197F1F70197D9F7109200
:101810001D0410921C0410923F0410923E0460E0DC
:1018200080917A00806480937A0080917A0086FDAE
:10183000FCCF8091780020917900522F40E090E019
:10184000842B952B90933F0480933E0420911C049D
:1018500030911D0480913E0490913F04820F931FAC
:1018600090931D0480931C046F5F6031C9F68091D2
:101870001C0490911D049695879596958795909355
:101880001D0480931C0480917A008F7780937A00E6
:1018900080917C008F7380937C0080917C00807E9F
:1018A00080937C0080917A00806280937A0080919E
:1018B0007A00886080937A0080917A0080688093B3
:1018C0007A0080E090E0FC01EE0FFF1FDF01A454DE
:1018D000BC4F11961C921E92E453FC4F1182108251
:1018E00001968830910579F788EE93E024EF31E096
:1018F000F9013197F1F70197D9F7789480917A003F
:10190000806480937A0081E08093BB0380917C00A7
:10191000807E816080937C0008958091B903089552
:101920008091B9038823E1F31092B9034FB7F8947B
:1019300020E030E0D901AA0FBB1FFD01E453FC4FAA
:10194000808191819695879596958795FD01E45FB5
:10195000FB4F91838083FD01E25EFB4F808191818B
:101960009695879596958795A25DBB4F11969C930A
:101970008E932F5F3F4F28303105E1F64FBF08951A
:101980001F920F920FB60F9211242F933F934F93F4
:101990005F936F937F938F939F93AF93BF93EF93D7
:1019A000FF9380917800609179007091BB03482F7C
:1019B00050E07723D9F48091CA039091CB03362F5E
:1019C00020E0242B352B820F931F9093CB03809321
:1019D000CA0330932D0420932C048091BA038F5FA7
:1019E0008093BA03803109F049C019C0E72FF0E0B5
:1019F0003197EE0FFF1FDF01A454BC4F2D913C9196
:101A00001197962F80E0842B952B280F391F119664
:101A10003C932E93E25EFB4F918380832FC020E0A6
:101A200030E0F901EE0FFF1FDF01A454BC4F8D9190
:101A30009C911197E453FC4F9183808311961C92E3
:101A40001E922F5F3F4F2830310559F71092BA038D
:101A500081E08093B9038091400490914104A0916A
:101A60004204B09143040196A11DB11D809340042E
:101A700090934104A0934204B0934304872F8F5F57
:101A80008093BB03883011F41092BB0390917C00CB
:101A90008091BB038F71907E892B80937C00FF9196
:101AA000EF91BF91AF919F918F917F916F915F91D6
:101AB0004F913F912F910F900FBE0F901F9018954F
:101AC0001F9310E00E94900C60910C0470910D0423
:101AD00040910E0450910F04209110043091110494
:101AE00084EF93E00E947F106091120470911304C0
:101AF000409114045091150420911604309117045C
:101B000080E094E00E94D6101F5F1233D9F68BB1AB
:101B100090E189278BB90E94C90BAB01BC0186EA11
:101B200093E00E94900886EA93E06CE20E94A60788
:101B30006091F4037091F50386EA93E00E94E50852
:101B400086EA93E06CE20E94A6076091F60370912A
:101B5000F70386EA93E00E94E50886EA93E06CE2E8
:101B60000E94A6076091F8037091F90386EA93E05A
:101B70000E94E50886EA93E06CE20E94A607609165
:101B800000047091010486EA93E00E94E50886EA69
:101B900093E06CE20E94A607609102047091030436
:101BA00086EA93E00E94E50886EA93E06CE20E94F0
:101BB000A607609104047091050486EA93E00E94F0
:101BC000E50886EA93E06CE20E94A60786EA93E0C5
:101BD0000E94B6071F9108952F923F924F925F92F5
:101BE0006F927F928F929F92AF92BF92CF92DF922D
:101BF000EF92FF920F931F93DF93CF9300D000D00B
:101C00000F92CDB7DEB7299A84EF91E00197F1F7F3
:101C1000299888EE93E024EF31E0F9013197F1F74C
:101C20000197D9F766247724430122243324210124
:101C300019821A821B821C82EE24FF248701AA24A7
:101C4000BB2465011D820E94900C80910C04909130
:101C50000D04A0E0B0E0E80EF91E0A1F1B1F8091E2
:101C60000E0490910F04A0E0B0E0A80EB91ECA1EA9
:101C7000DB1E8091100490911104809112049091C8
:101C80001304A0E0B0E0680E791E8A1E9B1E8091AE
:101C9000140490911504A0E0B0E0280E391E4A1EED
:101CA0005B1E8091160490911704A0E0B0E029819A
:101CB0003A814B815C81280F391F4A1F5B1F2983A2
:101CC0003A834B835C833D813F5F3D83343609F02B
:101CD000BACFC801B70124E630E040E050E00E94EE
:101CE000371179018A01C601B50124E630E040E0F0
:101CF00050E00E94371184EF93E0B701A9019701EA
:101D00000E947710C401B30124E630E040E050E0C7
:101D10000E94371149015A01C201B10124E630E0A5
:101D200040E050E00E94371169017A0169817A81AF
:101D30008B819C8124E630E040E050E00E94371126
:101D400089019A0180E094E0B401A60198010E9403
:101D5000CE100F900F900F900F900F90CF91DF91BA
:101D60001F910F91FF90EF90DF90CF90BF90AF90B9
:101D70009F908F907F906F905F904F903F902F90AB
:101D80000895EF92FF920F931F9306EA13E0C801A4
:101D900040E052EC61E070E00E94130AC8010E942A
:101DA000B607C8010E94B607C8010E94B607C8015D
:101DB00062E071E00E94DD07549A219A0E94D70BDD
:101DC0000E94EC0DC8016CE171E00E94AE076091C9
:101DD0003E0470913F04C8010E94A508C8016AE34F
:101DE00071E00E94AE0760913E0470913F0480E074
:101DF00090E00E94F9049B01AC0160E070E889E882
:101E000094E40E943B03AB01BC01C8010E94A809F5
:101E1000C8016AE571E00E94AE0760911C047091F0
:101E20001D04C8010E94A508C80166E871E00E946F
:101E3000AE0760911C0470911D0480E090E00E9448
:101E4000F9049B01AC0160E070E889E894E40E9429
:101E50003B03AB01BC01C8010E94A809C80164EBA7
:101E600071E00E94AE076091FA037091FB03C80114
:101E70000E94E50880EEE82E81E0F82EC801B70147
:101E80000E94AE076091FC037091FD03C8010E949F
:101E9000E508C801B7010E94AE076091FE0370918A
:101EA000FF03C8010E94E508C8010E94B607C801E7
:101EB00063EE71E00E94AE07609106047091070422
:101EC000C8010E94E508C801B7010E94AE076091F1
:101ED000080470910904C8010E94E508C801B7010F
:101EE0000E94AE0760910A0470910B04C8010E9421
:101EF000E508C8010E94B607C8010E94B60783E73B
:101F00008093E0038EE68093E10380E78093E20311
:101F100087EB8093E3038DE08093E4038FE380936A
:101F2000E5031F910F91FF90EF9008950E94C10E5D
:101F30000E94600DFDCF0F931F93DF93CF93CDB71A
:101F4000DEB764970FB6F894DEBF0FBECDBF8E012B
:101F50000F5F1F4F84E1F80111928A95E9F78BEA30
:101F600089838DEC8A8383E08B8380E18C830E945C
:101F7000C90B6D837E838F83988780910C04909129
:101F80000D049A87898780910E0490910F049C8795
:101F90008B8780911004909111049E878D8780918A
:101FA000120490911304988B8F8780911404909160
:101FB00015049A8B898B80911604909117049C8B41
:101FC0008B8B86EA93E0B80144E150E00E947F07E2
:101FD00064960FB6F894DEBF0FBECDBFCF91DF91F0
:101FE0001F910F9108950F931F93DF93CF93CDB758
:101FF000DEB768970FB6F894DEBF0FBECDBF8E0177
:102000000F5F1F4F88E1F80111928A95E9F78BEA7B
:1020100089838DEC8A8382E08B8384E18C830E94A8
:10202000C90B6D837E838F83988780910C04909178
:102030000D049A87898780910E0490910F049C87E4
:102040008B8780911004909111049E878D878091D9
:10205000120490911304988B8F87809114049091AF
:1020600015049A8B898B80911604909117049C8B90
:102070008B8B80911804909119049E8B8D8B80918D
:102080001A0490911B04988F8F8B86EA93E0B80115
:1020900048E150E00E947F0768960FB6F894DEBFD3
:1020A0000FBECDBFCF91DF911F910F910895FC011D
:1020B00082ED94E0978386839187808793878287D8
:1020C0001182108213821282158214820895FC01FB
:1020D00082ED94E0978386839187808793878287B8
:1020E0001182108213821282158214820895FC01DB
:1020F0007783668351874087338722870895FC0161
:1021000086819781681B790B7183608380859185B7
:10211000481B590B5383428382859385281B390BB7
:1021200035832483089582ED94E09093FB0380939C
:10213000FA039093FD038093FC039093FF03809335
:10214000FE031092F5031092F4031092F70310921D
:10215000F6031092F9031092F8030895FC0182ED42
:1021600094E0978386839187808793878287118203
:10217000108213821282158214820895FC0182ED6E
:1021800094E09783868391878087938782871182E3
:10219000108213821282158214820895FC017783C3
:1021A000668351874087338722870895FC018681A3
:1021B0009781681B790B7183608380859185481BAB
:1021C000590B5383428382859385281B390B3583B2
:1021D0002483089582ED94E090930704809306048D
:1021E000909309048093080490930B0480930A044D
:1021F0001092010410920004109203041092020441
:1022000010920504109204040895629FD001739FF8
:10221000F001829FE00DF11D649FE00DF11D929F82
:10222000F00D839FF00D749FF00D659FF00D9927C1
:10223000729FB00DE11DF91F639FB00DE11DF91FE5
:10224000BD01CF011124089597FB092E07260AD05E
:1022500077FD04D02ED006D000201AF47095619539
:102260007F4F0895F6F7909581959F4F0895A1E2CD
:102270001A2EAA1BBB1BFD010DC0AA1FBB1FEE1F00
:10228000FF1FA217B307E407F50720F0A21BB30B4B
:10229000E40BF50B661F771F881F991F1A9469F7C7
:1022A00060957095809590959B01AC01BD01CF0123
:1022B0000895AA1BBB1B51E107C0AA1FBB1FA6178D
:1022C000B70710F0A61BB70B881F991F5A95A9F7DF
:1022D00080959095BC01CD0108952F923F924F9229
:1022E0005F926F927F928F929F92AF92BF92CF92A6
:1022F000DF92EF92FF920F931F93CF93DF93CDB7AF
:10230000DEB7CA1BDB0B0FB6F894DEBF0FBECDBF26
:1023100009942A88398848885F846E847D848C84F7
:102320009B84AA84B984C884DF80EE80FD800C8100
:102330001B81AA81B981CE0FD11D0FB6F894DEBFE3
:102340000FBECDBFED010895EE0FFF1F0590F49174
:08235000E02D0994F894FFCF81
:102358002E005075736870616B2051756164726FDF
:10236800746F722E2E2E2E2E2E2E2E005261772056
:1023780041444320636F756E7420666F7220312E5E
:10238800315620726566203D200052617720414415
:1023980043206D696C6C69766F6C7473207065721C
:1023A80020636F756E74203D2000416363756D6115
:1023B8006C61746564203132626974204144432041
:1023C800636F756E7420666F7220312E31562072DD
:1023D8006566203D2000416363756D616C617465BD
:1023E8006420313262697420414443206D696C6C09
:1023F80069766F6C74732070657220636F756E7484
:10240800203D2000416363656C65726F6D6574657E
:10241800722063616C6962726174696F6E207661A3
:102428006C7565732C20582C20592C205A3A2000A2
:102438002C20004779726F2063616C696272617445
:10244800696F6E2076616C7565732C20582C205945
:102458002C205A3A20000000000000000000000173
:10246800020203030303040404040404040405052A
:102478000505050505050505050505050505060602
:1024880006060606060606060606060606060606E4
:1024980006060606060606060606060606060707D2
:1024A80007070707070707070707070707070707B4
:1024B80007070707070707070707070707070707A4
:1024C8000707070707070707070707070707070794
:1024D8000707070707070707070707070707080882
:1024E8000808080808080808080808080808080864
:1024F8000808080808080808080808080808080854
:102508000808080808080808080808080808080843
:102518000808080808080808080808080808080833
:102528000808080808080808080808080808080823
:102538000808080808080808080808080808080813
:102548000808080808080808080808080808080803
:102558000808080808080808080808080808000003
:102568000000B50B67077F0700000000590B6707DD
:022578007F07DB
:00000001FF
